:020000040C00EE
:100000000008FF1F01020008990200089902000879
:1000100099020008990200089902000800000000F7
:10002000000000000000000000000000C1240008E3
:10003000990200080000000001270008712700084D
:100040009902000899020008990200089902000824
:100050009902000899020008990200089902000814
:1000600099020008000000000000000000000000ED
:100070009902000800000000990200089902000897
:1000800099020008990200089902000899020008E4
:1000900099020008990200089902000899020008D4
:1000A000990200089902000800000000000000000A
:1000B0000000000000000000000000000000000040
:1000C0000000000000000000000000000000000030
:1000D0000000000000000000000000000000000020
:1000E00000000000000000009902000899020008CA
:1000F0009902000899020008990200089902000874
:100100009902000899020008990200089902000863
:1001100000000000000000000000000000000000DF
:1001200000000000000000000000000000000000CF
:100130009902000899020008990200089902000833
:1001400000000000000000000000000000000000AF
:10015000000000000000000000000000000000009F
:10016000000000000000000000000000000000008F
:1001700099020008990200089902000899020008F3
:1001800099020008990200089902000899020008E3
:1001900091230008812300089902000899020008B1
:1001A00099020008990200089902000899020008C3
:1001B00099020008990200089902000899020008B3
:1001C000000000000000000000000000000000002F
:1001D000000000000000000099020008000000007C
:1001E0009902000899020008990200089902000883
:1001F00099020008990200080000000000000000B9
:10020000DFF874D01D4880471D4C1E4DAC4209DA02
:1002100021686268A368043BA2BFC858D050FAE7BF
:100220000C34F3E7184B194CA34208DA19685A68E2
:100230000020043AA4BF8850FBE70833F4E71448D1
:1002400080471448804700007C51000C0008FF1FC5
:10025000CC0000007C51000C0008FF1F00000000D3
:10026000CC08FF1FB00100000000002000000000CB
:1002700000000020000000000008FF1F9D02000891
:1002800048020008600200086002000878020008C6
:10029000854E0008ED4B0008FEE7000098B500AF62
:1002A000054A4FF0005314460FCB84E80F0004F0CA
:1002B0004FFB04F0CBFB98BDC4FF002080B584B099
:1002C00000AF2F4BDB6803F48033002B3ED02D4B67
:1002D000DB6803F00103002B02D02B4BFB6002E034
:1002E00004F096FBF860274B1B6803F00403002B17
:1002F00020D0244B9B6803F070631B0E0133BB605E
:10030000204B9B6803F4FE431B0A01337B601D4BAB
:100310009B6803F4FE031B0C01333B60BB683A6827
:1003200002FB03F3FA68B2FBF3F37A6802FB03F310
:10033000FB600DE0134B9B6803F07F0301333B60D0
:10034000FA683B68B2FBF3F3FB6001E00E4BFB6025
:100350000B4BDB68DBB20133FA68B2FBF3F3FB60F3
:10036000074B1B6903F001030133FA68B2FBF3F397
:10037000FB60064AFB6813601037BD4680BD00BFB6
:10038000004600501047005000366E01C0FF0020AC
:1003900080B485B000AFF8600B467A60FB72FB7AE0
:1003A0009B08DBB21846FB7A9B08DBB21A46FB6857
:1003B000043253F82220FB7A03F00303DB001946D2
:1003C000F8238B40DB4302EA0301FB68021D43F87C
:1003D0002210FB685A6FFB7A5B00194603238B409F
:1003E000DB431A40FB685A67FB683A4A934203D0E2
:1003F000FB68394A93420AD1FB681A6EFB7A0121E5
:1004000001FA03F3DB431A40FB681A6642E07B689B
:100410001B78DBB25BB2002B3CDA7B685A68FB7A54
:100420009A40FB685A60FB7ADB08DBB21846FB7A1D
:10043000DB08DBB21A46FB68103253F82220FB7A45
:1004400003F007039B00194607238B40DB4302EAB6
:100450000301FB6800F1100243F82210FB7ADB086D
:10046000DBB21846FB7ADB08DBB21A46FB681032B7
:1004700053F822207B681B7A1946FB7A03F00703A6
:100480009B0001FA03F342EA0301FB6800F110024A
:1004900043F82210FB7A9B08DBB21846FB7A9B08D4
:1004A000DBB21A46FB68043253F822207B681B78C3
:1004B0001946FB7A03F00303DB0001FA03F342EA77
:1004C0000301FB68021D43F822101437BD465DF896
:1004D000047B7047008E0248008F024880B400AF52
:1004E000034B1B681846BD465DF8047B704700BF90
:1004F000C0FF002080B400AF034BD3F8C4301846CF
:10050000BD465DF8047B70470040005080B584B064
:1005100000AF7860FFF7D2FE0B4B1B680B4AA2FBC3
:1005200003239A0C7B6802FB03F37B600023FB60D0
:1005300003E000BFFB680133FB60FA687B689A4206
:10054000F7D31037BD4680BDC0FF002083DE1B43BC
:1005500080B400AF034B5B681846BD465DF8047B72
:10056000704700BF7440005080B483B000AF786023
:10057000034A7B68D3600C37BD465DF8047B704747
:1005800074400050B0B584B002AF7860002000F035
:10059000C5F800F0C7FA7B68DB79002B0AD000F0C1
:1005A000FFFA00BF00F0EAFA034683F00103DBB272
:1005B000002BF7D17B685B7A184600F029F900BF61
:1005C000FFF798FF0346002BFAD17B681B7A184689
:1005D00000F082FA7B681B7C184600F037F97B68D4
:1005E0005B7C184600F05AF97B689B7C184600F04B
:1005F00041F97B68DB7C184600F064F97B689B79E5
:10060000002B0AD000F004FB00BF00F029FB0346DA
:1006100083F00103DBB2002BF7D17B68DB78002B82
:1006200009D17B689B7983F00103DBB2002B17D0E3
:1006300000F03AFB14E000F027FB7B6899887B68A8
:10064000DA787B685B781D467B681B781C467B6884
:100650009B780093084611462A46234600F034FB57
:100660007B68DB68B3F5803F03D14FF4803000F046
:1006700055F8FFF723FE0837BD46B0BD80B485B0FE
:1006800000AF78607B681B0FFB607B6823F07043D2
:10069000BB60FA6813465B0013449B001A46044B88
:1006A0001344BA681A601437BD465DF8047B70477E
:1006B0001444005080B485B000AF78607B681B0F95
:1006C000FB607B6823F07043BB60FA6813465B00F5
:1006D00013449B001A46084B13441A68BB68134026
:1006E000002B14BF01230023DBB218461437BD468C
:1006F0005DF8047B704700BF0C44005080B500AF2C
:10070000FFF7ECFE0246044B5B6903F0010322FA9B
:1007100003F3184680BD00BF0046005080B483B08C
:1007200000AF78600649064BDB6823F480327B68B3
:100730001343CB600C37BD465DF8047B704700BFA8
:100740000046005080B483B000AF78600649064B85
:100750009B6923F480327B6813438B610C37BD4661
:100760005DF8047B704700BF0046005080B483B042
:1007700000AF78600649064B5B6A23F440327B6821
:1007800013434B620C37BD465DF8047B704700BFD6
:100790000046005080B483B000AF0346FB80FB8866
:1007A000002B08D10A4A0A4BDB6823F4807323F03C
:1007B0000103D36007E0064A054BDB6843F480730E
:1007C00043F00103D3600C37BD465DF8047B7047EE
:1007D0001047005080B483B000AF0346FB7100BFE8
:1007E000094BD3F8C43003F00803002BF8D10749B4
:1007F000064BDB6823F04002FB791343CB600C37D8
:10080000BD465DF8047B7047004000500043005037
:1008100080B483B000AF0346FB7100BF094BD3F82F
:10082000C43003F00803002BF8D10749064BDB68FE
:1008300023F08002FB791343CB600C37BD465DF893
:10084000047B7047004000500043005080B483B0E8
:1008500000AF78600649064BDB6823F0FF027B6837
:10086000013B1343CB600C37BD465DF8047B7047FA
:100870000046005080B483B000AF78600649064B54
:100880001B6A23F001027B68013B13430B620C37A8
:10089000BD465DF8047B70470046005080B483B0CD
:1008A00000AF78600649064B1B6923F001027B68A4
:1008B000013B13430B610C37BD465DF8047B704769
:1008C0000046005080B483B000AF78600649064B04
:1008D0005B6923F001027B68013B13434B610C37DA
:1008E000BD465DF8047B70470046005080B483B07D
:1008F00000AF78600649064B9B6923F007027B68CE
:10090000013B13438B610C37BD465DF8047B704798
:100910000046005080B483B000AF78600649064BB3
:100920005B6A23F0FF027B68013B13434B620C3789
:10093000BD465DF8047B70470046005080B483B02C
:1009400000AF78600649064B9B6B23F003027B687F
:10095000013B13438B630C37BD465DF8047B704746
:100960000046005080B483B000AF0346FB71044AD8
:10097000FB7953600C37BD465DF8047B704700BFC0
:100980000046005080B485B000AF78607B681B0FD4
:10099000FB607B6823F07043BB60FA6813465B0022
:1009A00013449B001A46044B1344BA681A60143768
:1009B000BD465DF8047B70474846005080B485B062
:1009C00000AF78607B681B0FFB607B6823F070438F
:1009D000BB60FA6813465B0013449B001A46084B41
:1009E00013441A68BB681340002B14BF0123002373
:1009F000DBB218461437BD465DF8047B704700BF74
:100A00004046005080B400AF054A054B5B6923F4B3
:100A1000803323F002035361BD465DF8047B7047C9
:100A20001047005080B483B000AF78603960284A26
:100A3000274B5B6943F00103536100BF244B1B69E3
:100A400003F00103002BF9D0214A214B5B6943F0ED
:100A5000100353611E493B68013B1A027B68013B4E
:100A60001B0613434B611A4A194B5B6943F0400361
:100A70005361174A164B5B6923F010035361144A04
:100A8000134B5B6943F48023536100BF104B1B6918
:100A900003F00403002BF9D00D4A0D4B5B6923F0E2
:100AA0000103536100BF0A4B1B6903F00103002BD4
:100AB000F9D1074A064B5B6923F040035361054BAC
:100AC0000822DA600C37BD465DF8047B704700BF32
:100AD000104700506041005080B582B000AF03461F
:100AE000FB710F4A0E4B5B6843F480135360FB7934
:100AF000012B0ED10A4A0A4B5B6823F48013536022
:100B00006420FFF703FD064A054B5B6843F40023AE
:100B100053606420FFF7FAFC0837BD4680BD00BF74
:100B20001047005080B400AF124B1B6803F0010364
:100B3000002B09D10F4B01225A6000BF0D4B1B68DF
:100B400003F00103002BF9D00B4B1B6803F4007377
:100B5000002B0AD0084B4FF400729A6000BF064B7E
:100B60001B6803F40073002BF9D1BD465DF8047BCC
:100B7000704700BF004200500044005080B400AFF6
:100B8000064B1B6803F00803002B0CBF0123002356
:100B9000DBB21846BD465DF8047B70470043005049
:100BA00080B500AF4FF40000FFF7DEFC174A174B8B
:100BB000DB6923F03003D36100BFFFF7C9FC0346B4
:100BC00003F40003002BF8D04FF40030FFF7CCFC07
:100BD0000E4B08225A6000BFFFF7BAFC034603F42D
:100BE0000033002BF8D04FF40020FFF7BDFC074A7C
:100BF000064BDB6843F00803D36000BFFFF7A8FC97
:100C0000034603F40023002BF8D080BD00430050BE
:100C1000B0B500AF0F4A0F4B5B6823F480335360CD
:100C20000D4D0D4B5B6823F4702424F0300403F069
:100C3000EFFE0246094BA3FB02231B0D013B1B04E5
:100C400023436B60034A034B5B6823F40033536018
:100C5000B0BD00BF10470050004700506BCA5F6B2B
:100C600080B400AF074B1B6803F46073B3F5607F7B
:100C70000CBF01230023DBB21846BD465DF8047BA0
:100C8000704700BF1047005080B400AF054A054BC5
:100C90005B6823F4803323F002035360BD465DF8A4
:100CA000047B70471047005080B400AF054A054BE5
:100CB0005B6843F4803343F002035360BD465DF844
:100CC000047B70471047005080B586B000AFBA6013
:100CD0007B600346FB810B467B73FB891846FFF75D
:100CE00059FD7B7B012B40F08B80FB89002B09D1C8
:100CF00003F08EFE0246544BA3FB02239B0C9B0584
:100D00007B6102E04FF0C0637B617B697A6802FB24
:100D100003F2BB68B2FBF3F37B617B694B4AA2FB36
:100D200003231B099B0D3B61494A494B5B6843F018
:100D30000103536000BF464B1B6803F00103002B07
:100D4000F9D0434A424B5B6843F01003536040497B
:100D50003F4B9A683F4B13407A68013A12021A439C
:100D60003B69013B1B041A43BB68013B1B06134351
:100D70008B60374A364B5B6843F040035360344A1C
:100D8000334B5B6823F010035360314A304B5B6890
:100D900043F48023536000BF2D4B1B6803F0040312
:100DA000002BF9D02A4A2A4B5B6823F001035360D9
:100DB00000BF274B1B6803F00103002BF9D17B69AF
:100DC000254AA2FB03235B099B0D3B613A6A3B6901
:100DD0009A4202D2386900F045F87B695B081F4AE5
:100DE000A2FB03235B099B0D3B613A6A3B699A4274
:100DF00002D2386900F036F8386A00F033F81CE0A7
:100E00001349134B9B6823F07F023B6A013B13435A
:100E10008B6000BF0E4B1B6803F01003002BF9D052
:100E20000B4A0B4B5B6843F00103536000BF084B58
:100E30001B6803F00103002BF9D0094B0522DA608F
:100E40001837BD4680BD00BF83DE1B43ABAAAAAAEC
:100E500010470050FF8080F089888888B7600BB603
:100E60006041005080B582B000AF78600B490B4BF9
:100E70009B6823F4FE027B68013B1B0413438B60D9
:100E800000BF064B1B6803F02003002BF9D0322073
:100E9000FFF73CFB0837BD4680BD00BF1047005040
:100EA00080B483B000AF78607B684FF48072DA6002
:100EB0000C37BD465DF8047B704700BF80B582B03B
:100EC00000AF78607B68084A934203D10420FFF7A3
:100ED000D5FB06E07B68054A934202D10820FFF764
:100EE000CDFB0837BD4680BD00C00040000001407A
:100EF00080B582B000AF78607B68084A934203D126
:100F00000420FFF73FFD06E07B68054A934202D1CB
:100F10000820FFF737FD0837BD4680BD00C0004000
:100F20000000014080B582B000AF78601020FFF76C
:100F300019FD7868FFF7DCFF7868FFF7BFFF083717
:100F4000BD4680BD80B584B000AF78600B46FB70B5
:100F50007868FFF7E7FF7868FFF7A2FF7B681B68F8
:100F6000FB60FB6823F44043FB60FB789B03FA685B
:100F70001343FB607B68FA681A601037BD4680BD7A
:100F800080B483B000AF78600B46FB701346BB7033
:100F90007B685A6FFB785B00194603238B40DB4369
:100FA0001A407B685A677B685A6FBB78F9784900AA
:100FB0008B401A437B685A670C37BD465DF8047B4B
:100FC000704700BF80B584B000AFF860B9601346C9
:100FD000FB71F86800F072F8BB685B79002B15D1E3
:100FE000FB79002B12D0BB681B79002B07D0BB68A4
:100FF0001B68F8681946022200F00CF906E0BB688D
:101000001B68F8681946022200F092F8FB680F4A44
:101010005A63FB684FF4A2629A63BB685B79002B4A
:1010200007D1BB689B7943F00B03DBB21A46FB6820
:10103000DA63FB684FF0FF32DA64BB681B891A463B
:10104000FB681A641037BD4680BD00BF02013F0730
:1010500080B485B000AF78607B68D3F80C3103F0C2
:10106000E063002B03D17B685B6DFB8103E07B6851
:10107000D3F81C31FB81FB8918461437BD465DF857
:10108000047B704780B483B000AF786039607B68C0
:101090001A6C3B6803F4FE33DB431A407B681A6426
:1010A0007B68DA6B3B685B039BB2DB431A407B686F
:1010B000DA630C37BD465DF8047B704780B582B0BB
:1010C00000AF78607B68144A934203D07B68134A70
:1010D000934203D1124800F0DFF90AE07B68114A1D
:1010E000934203D07B68104A934202D10F4800F02C
:1010F000D3F97B680322DA6000BF7B68DB6803F00A
:101100000103002BF9D07B681B6C23F00F027B6876
:101110001A640837BD4680BD00000340000203404A
:10112000080003400000024800020248080002488C
:1011300080B58EB000AFF860B9607A60BB68632B91
:101140005AD97B68002B57D0FFF7D8FA02462F4BAD
:10115000A3FB02235B093B62BB682C4AA2FB03236F
:101160005B09BB604FF48063FB620123BB6240F20A
:10117000FF337B624FF480633B6322E03B6A3A6B50
:1011800002FB03F2BB68796801FB03F3B2FBF3F3E4
:10119000FB61FB699B0ABB61FB69C3F309037B61CC
:1011A000BB69B3F5806F09D87A697B6A9A4205D228
:1011B0007B697B62BB69BB623B6BFB623B6B013B48
:1011C0003B633B6B002BD9D1FB6A013B43F40042EC
:1011D000FB681A61FB685A690D4B13407A68013A43
:1011E00092021A43BB6A013B1B041A43FB685A6113
:1011F000002387F8373002E0012387F8373097F86B
:10120000373018463837BD4680BD00BF1F85EB51CB
:10121000EF8000FC80B58CB000AFF860B9607A60F8
:10122000FFF76CFA03463B62BB687A6802FB03F384
:10123000FB610123FB623A6AFB699A425FDD3A6A0D
:10124000FB6992FBF3F3BB6210E0FB6A0133FB62C4
:10125000BB687A6802FB03F31A46FB6A03FB02F3DE
:10126000FB613A6AFB6992FBF3F3BB62BB6A40F233
:10127000FE329342E9D83A6A7B68B96A01FB03F30C
:10128000F96A01FB03F3B2FBF3F3BB613A6ABB6A91
:101290000133796801FB03F3F96A01FB03F3B2FB45
:1012A000F3F37B61BA687B69D31A83EAE372A2EB3A
:1012B000E372B968BB69CB1A002BB8BF5B429A4294
:1012C00002DABB6A0133BB62BB6AC3F58063BB62EF
:1012D000BB6A43F48042FB681A61FB685A690C4B95
:1012E00013407A68013A92021A43FB6A013B1B04DD
:1012F0001A43FB685A61002387F8273002E0012374
:1013000087F8273097F8273018463037BD4680BD1C
:10131000EF8000FC80B485B000AFF860B9603B603E
:101320001346FB71FB68D3F8083123F0E062FB68D9
:10133000C3F80821FB68D3F80821094B13403A6829
:101340001102BA681143FA7912060A431A43FB687C
:10135000C3F808211437BD465DF8047B704700BF11
:10136000C0C0FFF880B485B000AFF860B9603B60E2
:101370001346FB71FB68D3F80C3123F0E062FB6885
:10138000C3F80C21FB68D3F80C210A4B13403A68D0
:101390001102BA681143FA7912060A43134343F063
:1013A0008052FB68C3F80C211437BD465DF8047BFE
:1013B000704700BFC0C0FFEF80B485B000AFF860D9
:1013C0000B467A60FB72FB68D3F80C3123F47C5235
:1013D0007B681B021A43FB68C3F80C211437BD4617
:1013E0005DF8047B704700BF80B485B000AFF86043
:1013F0000B467A60FB72FB689A69FB7A072101FA57
:1014000003F3DB431A40FB7A796801FA03F31A43CA
:10141000FB689A611437BD465DF8047B704700BFD6
:1014200080B485B000AFF8600B467A60FB72FB6851
:10143000D3F80821FB7A072101FA03F3DB431A40B2
:10144000FB7A796801FA03F31A43FB68C3F80821B1
:101450001437BD465DF8047B704700BF80B485B08B
:1014600000AFF8600B467A60FB72FB68D3F80C2182
:10147000FB7A072101FA03F3DB431A40FB7A796810
:1014800001FA03F31A43FB68C3F80C211437BD4675
:101490005DF8047B704700BF80B582B000AF786014
:1014A0007B681B4A934218D14FF40060FFF76AFA39
:1014B00000BF4FF40060FFF781FA0346002BF8D11C
:1014C0004FF40060FFF7DAF800BF4FF40060FFF759
:1014D000F1F80346002BF8D117E07B680D4A9342E0
:1014E00013D10D48FFF74EFA00BF0B48FFF766FA1D
:1014F0000346002BF9D10848FFF7C0F800BF0648A3
:10150000FFF7D8F80346002BF9D10837BD4680BD58
:1015100008000340080002488000001080B584B035
:1015200000AF7860144B1B68002B02D1124B134A9A
:101530001A60114B1B68FB607B68033323F00303C5
:101540007B600D4B1A687B6813440D4A934207D2A7
:10155000094B1A687B681344074A1360FB6806E06E
:1015600003F08AFC02460C2313604FF0FF33184649
:101570001037BD4680BD00BFCC08FF1F0000002013
:10158000C0FF002080B400AFBD465DF8047B70470B
:1015900080B485B000AFF8600B467A607B817989B2
:1015A000FB687A68203243F822101437BD465DF894
:1015B000047B704780B483B000AF786039607B688B
:1015C0001A6C3B681A437B681A640C37BD465DF899
:1015D000047B704780B483B000AF786039607B686B
:1015E0001A6C3B68DB431A407B681A640C37BD46B3
:1015F0005DF8047B704700BF80B483B000AF7860B3
:101600007B689B6BDBB223F07F03DBB218460C37A1
:10161000BD465DF8047B704780B483B000AF78604E
:101620007B681B6D03F4C04318460C37BD465DF85C
:10163000047B704780B483B000AF786039603B684A
:101640004FF480329A407B689A660C37BD465DF84D
:10165000047B704780B483B000AF786039607B68EA
:10166000D3F808213B681A437B68C3F808210C377C
:10167000BD465DF8047B704780B483B000AF7860EE
:1016800039607B68D3F808213B68DB431A407B68EC
:10169000C3F808210C37BD465DF8047B704700BFD6
:1016A00080B485B000AFF8600B467A607B817989A1
:1016B000FB687A68603243F822101437BD465DF843
:1016C000047B704780B483B000AF78607B684FF4D0
:1016D0000042C3F818210C37BD465DF8047B704703
:1016E00080B483B000AF78607B68D3F8143103F422
:1016F0008053002B14BF01230023DBB218460C37A4
:10170000BD465DF8047B704780B483B000AF78605D
:101710007B68D3F8143103F40063002B14BF01235A
:101720000023DBB218460C37BD465DF8047B7047DA
:1017300080B483B000AF786039607B68D3F80C2147
:101740003B681A437B68C3F80C210C37BD465DF833
:10175000047B704780B483B000AF786039607B68E9
:10176000D3F80C213B68DB431A407B68C3F80C219B
:101770000C37BD465DF8047B704700BF80B483B072
:1017800000AF78607B684FF48042C3F818210C37B3
:10179000BD465DF8047B704780B483B000AF7860CD
:1017A0007B68D3F8143103F00803002B14BF012326
:1017B0000023DBB218460C37BD465DF8047B70474A
:1017C00080B483B000AF78600B46FB707B681B6C05
:1017D00023F0C002FB789B01DBB21A437B681A64DA
:1017E0000C37BD465DF8047B704700BF80B584B000
:1017F00000AF78607B685B685B6898470346FB7363
:10180000FB7B18461037BD4680BD00BF80B586B053
:1018100000AFF860B9607A600123FB75FB685B6814
:1018200093F88430002B06D1F868B9687A6800F024
:1018300007F80346FB75FB7D18461837BD4680BD8B
:1018400080B588B000AFF860B9607A600123BB61F1
:101850000423FB77FB689B687B61FB685B6893F8FC
:101860008430002B5CD1BB68002B57D07B68002BE9
:1018700054D00223FB777B6993F82030DBB283F0EE
:101880000103DBB2002B48D0FB689B681B68082B68
:1018900001D90223BB617B69BA689A61BB69013BCC
:1018A0001A467B6803FA02F27B695A607B69002260
:1018B0009A607B69012283F82020FB685B6893F8BB
:1018C0007C30002B0CD0FB681B681846FFF7FAFE33
:1018D000FB681B6818464FF08041FFF7BBFE06E02F
:1018E000FB681B6818464FF40051FFF763FEFB6866
:1018F0001A687B691B7FDBB210461946FFF760FF51
:101900000023FB77FB681A68FB685B6893F88930F3
:1019100010461946FFF78EFE02E001E00323FB7735
:10192000FB7F18462037BD4680BD00BF80B586B01E
:1019300000AFF860B9607A603B600223FB75FB681A
:101940009B683B613B691B7FDBB2002B3FD1BB68CF
:10195000002B38D07B68002B35D03B68002B32D071
:101960003B69DB7FDBB283F00103DBB2002B29D0C4
:101970003B6993F82030DBB283F00103DBB2002B2C
:1019800020D03B690122DA773B697A685A613B696A
:10199000BA689A613B693A685A603B69002283F8E9
:1019A00021203B69002283F82220FB685B6893F8C2
:1019B0008530002B06D1F868396800F0F3F803464B
:1019C000FB7503E002E00323FB7502E001E0012365
:1019D000FB75FB7D18461837BD4680BD90B587B0B6
:1019E00000AF786001233B617B689B68FB607B688C
:1019F0009B681B68082B01D902233B61FB689A682E
:101A0000FB685B689A4280F08B800023FB827B68D6
:101A10005B6893F87C30002B4BD03EE0FB689A6803
:101A2000FB685B689A4236D2FB6893F82130DBB2E0
:101A3000002B0BD07B681A68FB681B7FDBB210465B
:101A40004FF6FF711A46FFF72BFE1DE03B69022B94
:101A500007D1FB689A69FB689B6813441B88FB826B
:101A600006E0FB689A69FB689B6813441B78FB825D
:101A70007B681A68FB681B7FDBB21C46FB8A10463A
:101A800019462246FFF70CFEFB689A683B691A4428
:101A9000FB689A6001E000BF80E07B681B68184625
:101AA000FFF71EFE034683F00103DBB2002BB5D126
:101AB00074E0FB6893F82130DBB2002B0BD07B681D
:101AC0001A68FB681B7FDBB210464FF6FF711A469F
:101AD000FFF75EFD1DE03B69022B07D1FB689A69A9
:101AE000FB689B6813441B88FB8206E0FB689A69CD
:101AF000FB689B6813441B78FB827B681A68FB6851
:101B00001B7FDBB21C46FB8A104619462246FFF7B4
:101B10003FFDFB689A683B691A44FB689A603DE0A8
:101B20007B681B681846FFF7EFFD0346002B35D096
:101B30007B685B6893F87C30002B07D07B681B6860
:101B400018464FF08041FFF797FD06E07B681B6861
:101B500018464FF40051FFF73DFD00BF7B681B683E
:101B60001846FFF749FD0346802BF7D0FB6800229B
:101B700083F82020FB6800229A617B685B681B6FFA
:101B8000002B0BD0FB68DB7FDBB283F00103DBB201
:101B9000002B03D07B685B681B6F98471C37BD46E2
:101BA00090BD00BF80B586B000AF7860396001237A
:101BB0007B617B689B683B613B6900221A617B68A3
:101BC0009B681B68082B01D902237B617B69013B61
:101BD0001A463B6803FA02F23B69DA607B685B688D
:101BE00093F87D30002B17D07B681B681846FFF7F1
:101BF000C5FD7B681B68184600F096F93B69DB68F9
:101C00007868194600F058F97B681B6818464FF051
:101C1000C041FFF78DFD0BE07B681B68184600F0A4
:101C200083F97B681B6818464FF44041FFF7C2FCFC
:101C30003B699A693B695B68786811461A46FFF709
:101C4000E5FD0346FB73FB7B18461837BD4680BD98
:101C500080B586B000AF786001237B617B689B68AC
:101C60003B610023FB817B689B681B68082B01D9C3
:101C700002237B617B685B6893F87D30002B1DD06D
:101C80007868796900F0B6F83B69DA683B691B69E6
:101C9000D21A7B685B6893F87D30013B012101FA21
:101CA00003F39A4200F2A2803B69DA683B691B6940
:101CB000D31A7868194600F0FFF897E07B681B6834
:101CC0001846FFF7A9FC034603F40053002B28D065
:101CD0003B691A693B69DB689A4222D27B681B68C0
:101CE0001846FFF7B5F90346FB813B695A693B6922
:101CF0001B691344FA89D2B21A707B69022B0AD18C
:101D00003B695A693B691B6901331344FA89120A1A
:101D100092B2D2B21A703B691A697B691A443B6964
:101D20001A617B681B681846FFF776FC034603F4CC
:101D30008043002B28D03B691A693B69DB689A42D3
:101D400022D27B681B681846FFF782F90346FB81A5
:101D50003B695A693B691B691344FA89D2B21A700C
:101D60007B69022B0AD13B695A693B691B690133C4
:101D70001344FA89120A92B2D2B21A703B691A69F4
:101D80007B691A443B691A613B691A693B69DB68E4
:101D90009A422BD17B685B6893F87D30002B07D08B
:101DA0007B681B6818464FF0C041FFF7D3FC06E084
:101DB0007B681B6818464FF44041FFF763F93B69A5
:101DC0000022DA773B69002283F821203B69012257
:101DD00083F822203B6900225A617B685B685B6F55
:101DE000002B03D07B685B685B6F98471837BD4654
:101DF00080BD00BF80B584B000AF786039607B687B
:101E00009B68FB6000237B8147E0FB681A69FB68E5
:101E1000DB689A4222D27B681B681846FFF718F9E4
:101E200003467B81FB685A69FB681B6913447A8906
:101E3000D2B21A703B68022B0AD1FB685A69FB6860
:101E40001B69013313447A89120A92B2D2B21A7012
:101E5000FB681A693B681A44FB681A61FB681A69D7
:101E6000FB68DB689A4218D1FB680022DA77FB68CE
:101E7000002283F821207B681B6818464FF0C04180
:101E8000FFF768FC7B685B685B6F002B04D07B68A6
:101E90005B685B6F98470BE00AE07B681B6818463D
:101EA000FFF77AFC034683F00103DBB2002BACD1D1
:101EB0001037BD4680BD00BF80B584B000AF7860EC
:101EC00039607B685B6893F87D30002B28D03B68D5
:101ED000002B25D07B685B6893F87D30013B0122A5
:101EE00002FA03F3BB607B689B681B68082B02D96E
:101EF0003B685B083B603A68BB689A4203D83B6822
:101F0000013BFB6001E0BB68FB607B681A687B6893
:101F10005B6893F87D3010461946FA68FFF74CFA73
:101F20001037BD4680BD00BF80B582B000AF78607D
:101F30007868FFF78DF87868FFF78AF80837BD46AC
:101F400080BD00BF80B400AF044BDB6803F4E063E6
:101F50001B0A1846BD465DF8047B704700ED00E0A3
:101F600080B483B000AF0346FB7197F90730002BB4
:101F70000BDB084997F907305B09FA7902F01F0279
:101F8000012000FA02F241F823200C37BD465DF82B
:101F9000047B704700E100E080B483B000AF0346EB
:101FA0003960FB7197F90730002B0ADB0D4997F96F
:101FB00007303A68D2B29200D2B20B4483F80023C1
:101FC0000AE00949FB7903F00F03043B3A68D2B2F7
:101FD0009200D2B20B441A760C37BD465DF8047BF2
:101FE000704700BF00E100E000ED00E080B489B080
:101FF00000AFF860B9607A60FB6803F00703FB612B
:10200000FB69C3F10703062B28BF0623BB61FB69ED
:102010000633062B02D9FB69013B00E000237B61FC
:10202000BB69012202FA03F35A1EBB681A407B699E
:102030009A407B69012101FA03F3591E7B680B402A
:10204000134318462437BD465DF8047B704700BF34
:1020500080B483B000AF78600B46FB701346BB7052
:10206000F878FB787A6806339B0013445B6823F0AA
:102070000702BB781A437968831D9B000B445A60A2
:102080000C37BD465DF8047B704700BF80B483B059
:1020900000AF78600B46FB707B685B6B23F070626F
:1020A000FB78013B1B061A437B685A630C37BD461D
:1020B0005DF8047B704700BF80B483B000AF7860E8
:1020C0000B46FB707B685B6B23F47C12FB78013B57
:1020D0001B041A437B685A630C37BD465DF8047BCA
:1020E000704700BF80B485B000AFF860B9607A6017
:1020F000FB685B6923F05042BB681A437B681A4354
:10210000FB685A611437BD465DF8047B704700BF19
:1021100080B483B000AF78600B46FB707B681B6CAB
:1021200023F00F02FB781A437B681A640C37BD4614
:102130005DF8047B704700BF80B582B000AF786067
:102140003960786839680122FEF73CFF0837BD46E0
:1021500080BD00BF80B582B000AF78607868012193
:10216000FFF7D6FF0837BD4680BD00BF80B483B0FF
:1021700000AF78607B685B6B43F001027B685A6359
:102180000C37BD465DF8047B704700BF80B483B058
:1021900000AF786039607B685B6923F4FE423B687E
:1021A000013B9B02134343F480727B685A610C37F6
:1021B000BD465DF8047B704780B483B000AF7860A3
:1021C0007B68DB6B23F008027B68DA630C37BD4663
:1021D0005DF8047B704700BF80B584B000AFF86045
:1021E000B9607A60F868B9687A68FFF77BFF1037E2
:1021F000BD4680BD80B582B000AF78600B46FB70F5
:10220000FB7878681946FFF741FF0837BD4680BD67
:1022100080B582B000AF78600B46FB70FB787868C1
:102220001946FFF749FF0837BD4680BD80B582B02B
:1022300000AF78600B46FB701346BB70F878FB78F4
:102240007A6806339B0013445B6823F0500343F025
:1022500010027968831D9B000B445A60FA78BB78A2
:10226000786811461A46FFF7F3FE0837BD4680BD71
:1022700080B582B000AF0023FB713B483B49FFF7BC
:102280005BFF3948FFF798FF3748FFF76FFF364885
:102290000821FFF7AFFF34484021FFF7B9FF32486C
:1022A00000210022FFF798FF2F480221FFF76EFF61
:1022B0002F4802212F4AFEF76BF82B4800210022FD
:1022C000FFF7B4FF2848FFF745FF294805212A4AB0
:1022D000FEF75EF826480421284AFEF759F82248FE
:1022E00010210222FFF780F81F4810210422012349
:1022F000FFF710F81C4810210122FFF791F81A4847
:10230000002104220023FFF72DF817481021002296
:10231000FFF7A4F8144813210022FFF79FF8FFF7F6
:1023200011FE034618463F210022FFF75FFE0346D9
:1023300055201946FFF730FE5520FFF711FEFFF735
:1023400001FE034618463E210022FFF74FFE0346DA
:1023500054201946FFF720FE5420FFF701FEFB79B9
:1023600018460837BD4680BD000203401408FF1F11
:1023700000820248D008FF1F0008FF1F8450000899
:1023800080B500AF0148FFF729FB80BD4408FF1F5F
:1023900080B500AF0148FFF75BFC80BD4408FF1F1C
:1023A00080B483B000AF78607B684FF48072DA60ED
:1023B0000C37BD465DF8047B704700BF80B582B026
:1023C00000AF78607B685B7B83F00103DBB2002B9E
:1023D0000FD07B689A687B681B7B10461946FEF716
:1023E000B1FD7B689B681846FFF7DAFF7B68012226
:1023F0005A73002318460837BD4680BD80B485B0A7
:1024000000AFF860B9607A60FB68043BFB60FB6872
:102410004FF080721A60FB68043BFB60BB6823F0DE
:102420000102FB681A60FB68043BFB600C4AFB6816
:102430001A60FB68143BFB607A68FB681A60FB68F3
:10244000043BFB60FB686FF002021A60FB68203BF4
:10245000FB60FB6818461437BD465DF8047B704787
:102460006524000880B485B000AF00237B60104B6A
:102470001B68B3F1FF3F09D04FF0FC0383F31188D1
:10248000BFF36F8FBFF34F8FFB60FEE74FF0FC038E
:1024900083F31188BFF36F8FBFF34F8FBB6000BF13
:1024A0007B68002BFCD01437BD465DF8047B704779
:1024B0006008FF1F00000000000000000000000096
:1024C000074B19680868B0E8F04F80F30988BFF33C
:1024D0006F8F4FF0000080F311887047AFF30080DA
:1024E000EC08FF1FAFF30080AFF30080AFF3008074
:1024F00008480068006880F308884FF0000080F307
:10250000148862B661B6BFF34F8FBFF36F8F00DFE1
:1025100000BF000008ED00E080B586B000AF444B7E
:102520001B68444A934209D14FF0FC0383F311889E
:10253000BFF36F8FBFF34F8F3B61FEE73C4B1B68D0
:102540003D4A934209D14FF0FC0383F31188BFF356
:102550006F8FBFF34F8FFB60FEE7384B7B617B696A
:102560001B78DBB27B607B69FF221A707B691B786A
:10257000DBB2FB70FB78DBB223F00303DAB2304B43
:102580001A70304B07221A6009E02E4B1B68013B82
:102590002C4A1360FB78DBB25B00DBB2FB70FB788C
:1025A000DBB2DBB25BB2002BEFDB264B1B68C3F167
:1025B0000703062B09D04FF0FC0383F31188BFF308
:1025C0006F8FBFF34F8FBB60FEE71E4B1B681B0274
:1025D0001C4A13601B4B1B6803F4E063194A136029
:1025E0007B68DAB27B691A70174A174B1B6843F491
:1025F0007C031360144A144B1B6843F07C43136044
:1026000000F0D6F8114B00221A6000F0F3F8104ADF
:102610000F4B1B6843F040431360FFF769FF01F065
:10262000D5FAFFF71FFF002318461837BD4680BDB7
:1026300000ED00E071C20F4170C20F4100E400E004
:10264000E408FF1FE808FF1F20ED00E06008FF1FFF
:1026500034EF00E080B483B000AF4FF0FC0383F3AD
:102660001188BFF36F8FBFF34F8F7B600E4B1B68DA
:1026700001330D4A13600C4B1B68012B0ED10B4B21
:102680001B68DBB2002B09D04FF0FC0383F31188E9
:10269000BFF36F8FBFF34F8F3B60FEE70C37BD4634
:1026A0005DF8047B704700BF6008FF1F04ED00E089
:1026B00080B483B000AF104B1B68002B09D14FF0E2
:1026C000FC0383F31188BFF36F8FBFF34F8F7B60E1
:1026D000FEE7094B1B68013B074A1360064B1B686A
:1026E000002B04D100233B603B6883F311880C3737
:1026F000BD465DF8047B70476008FF1F00000000C6
:10270000EFF30980BFF36F8F154B1A681EF0100F9F
:1027100008BF20ED108A20E9F04F10602DE9090074
:102720004FF0FC0080F31188BFF34F8FBFF36F8F22
:1027300001F04CFA4FF0000080F3118809BC1968D1
:102740000868B0E8F04F1EF0100F08BFB0EC108A18
:1027500080F30988BFF36F8F704700BFAFF300802D
:10276000EC08FF1FAFF30080AFF30080AFF30080F1
:1027700080B582B000AF4FF0FC0383F31188BFF344
:102780006F8FBFF34F8F7B6001F066F90346002B1C
:1027900003D0064B4FF080521A6000233B603B6829
:1027A00083F311880837BD4680BD00BF04ED00E00B
:1027B00080B400AF0A4B00221A600A4B00221A6054
:1027C000094A0A4B1B680A49A1FB03139B09013BF9
:1027D0001360034B07221A60BD465DF8047B704707
:1027E00010E000E018E000E014E000E0C0FF00208E
:1027F000D34D6210DFF80C00016841F470010160F4
:102800007047000088ED00E080B485B000AFEFF3C2
:102810000583FB60FB680F2B13D9154AFB68134433
:102820001B78FB72134B1B78FA7A9A4209D24FF04D
:10283000FC0383F31188BFF36F8FBFF34F8F7B606F
:10284000FEE70D4B1B6803F4E0620C4B1B689A42D9
:1028500009D94FF0FC0383F31188BFF36F8FBFF3E7
:102860004F8F3B60FEE71437BD465DF8047B704731
:10287000F0E300E0E408FF1F0CED00E0E808FF1FB4
:1028800080B584B000AF786001F02AF8786802F073
:102890001FFB0346FB6001F031F8FB681846103758
:1028A000BD4680BD80B582B000AF78607B68002BEC
:1028B00006D001F015F8786802F012FB01F01EF85E
:1028C0000837BD4680BD00BF80B483B000AF7860DC
:1028D0007B6803F108027B685A607B684FF0FF3227
:1028E0009A607B6803F108027B68DA607B6803F119
:1028F00008027B681A617B6800221A600C37BD46AB
:102900005DF8047B704700BF80B483B000AF78608F
:102910007B6800221A610C37BD465DF8047B704766
:1029200080B485B000AF786039607B685B68FB601D
:102930003B68FA685A60FB689A683B689A60FB6873
:102940009B683A685A60FB683A689A603B687A68A4
:102950001A617B681B685A1C7B681A601437BD4675
:102960005DF8047B704700BF80B485B000AF78602D
:1029700039603B681B68BB60BB68B3F1FF3F03D1A4
:102980007B681B69FB600CE07B680833FB6002E03E
:10299000FB685B68FB60FB685B681A68BB689A420F
:1029A000F6D9FB685A683B685A603B685B683A68CE
:1029B0009A603B68FA689A60FB683A685A603B68BC
:1029C0007A681A617B681B685A1C7B681A60143726
:1029D000BD465DF8047B704780B485B000AF786079
:1029E0007B681B69FB607B685B687A6892689A60A9
:1029F0007B689B687A6852685A60FB685A687B6893
:102A00009A4203D17B689A68FB685A607B6800220F
:102A10001A61FB681B685A1EFB681A60FB681B681A
:102A200018461437BD465DF8047B704780B584B006
:102A300000AF786039607B68FB60FB68002B09D1D0
:102A40004FF0FC0383F31188BFF36F8FBFF34F8FF9
:102A5000BB60FEE7FFF7FEFDFB681A68FB68DB6BF7
:102A6000F968096C01FB03F31A44FB689A60FB6880
:102A700000229A63FB681A68FB685A60FB681A6850
:102A8000FB68DB6B013BF968096C01FB03F31A443B
:102A9000FB68DA60FB68FF2283F84420FB68FF22B2
:102AA00083F845203B68002B14D1FB681B69002B81
:102AB0001AD0FB681033184601F02EF90346002B9C
:102AC00012D00D4B4FF080521A60BFF34F8FBFF3FF
:102AD0006F8F09E0FB6810331846FFF7F5FEFB68BF
:102AE00024331846FFF7F0FEFFF7E2FD01231846F6
:102AF0001037BD4680BD00BF04ED00E090B58DB03D
:102B000002AFF860B9601346FB71FB68002B09D176
:102B10004FF0FC0383F31188BFF36F8FBFF34F8F28
:102B2000BB61FEE7FB68BA6802FB03F37B62BB682C
:102B3000002B06D07A6ABB68B2FBF3F2FB689A42BC
:102B400001D1012300E00023002B09D14FF0FC0349
:102B500083F31188BFF36F8FBFF34F8F7B61FEE765
:102B60007B6A03F154027B6A9A4209D84FF0FC0356
:102B700083F31188BFF36F8FBFF34F8F3B61FEE785
:102B80007B6A54331846FFF77BFE38623B6A002BA2
:102B90000DD03B6AFB61FB695433FB61FC793B6AF6
:102BA0000093F868B968FA69234600F005F83B6AB3
:102BB00018462C37BD4690BD80B584B000AFF86094
:102BC000B9607A60FB70BB68002B03D1BB69BA693E
:102BD0001A6002E0BB697A681A60BB69FA68DA6356
:102BE000BB69BA681A64B8690121FFF71FFFBB69A6
:102BF000FA7883F85020BB6900229A641037BD46EA
:102C000080BD00BF80B58EB000AFF860B9607A605B
:102C10003B6000237B63FB683B633B6B002B09D16C
:102C20004FF0FC0383F31188BFF36F8FBFF34F8F17
:102C30007B62FEE7BB68002B03D13B6B1B6C002B58
:102C400001D1012300E00023002B09D14FF0FC0348
:102C500083F31188BFF36F8FBFF34F8F3B62FEE7A3
:102C60003B68022B03D13B6BDB6B012B01D10123B2
:102C700000E00023002B09D14FF0FC0383F31188FF
:102C8000BFF36F8FBFF34F8FFB61FEE701F0EAF9EF
:102C90000346002B02D17B68002B01D1012300E009
:102CA0000023002B09D14FF0FC0383F31188BFF3FD
:102CB0006F8FBFF34F8FBB61FEE7FFF7CBFC3B6B22
:102CC0009A6B3B6BDB6B9A4202D33B68022B47D17A
:102CD0003B6B9B6BFB62386BB9683A6800F04CFA4F
:102CE000B8623B6B9B6C002B16D03B68022B04D167
:102CF000FB6A002B01D000BF2EE0386B00F0B8FB60
:102D00000346002B28D04C4B4FF080521A60BFF383
:102D10004F8FBFF36F8F1FE03B6B5B6A002B10D0B0
:102D20003B6B2433184600F0F7FF0346002B13D00B
:102D3000414B4FF080521A60BFF34F8FBFF36F8F3C
:102D40000AE0BB6A002B07D03B4B4FF080521A6061
:102D5000BFF34F8FBFF36F8FFFF7AAFC012367E02C
:102D60007B68002B03D1FFF7A3FC002360E07B6BA3
:102D7000002B06D107F11003184601F031F80123AA
:102D80007B63FFF795FC00F0ABFDFFF763FC3B6B4B
:102D900093F84430DBB25BB2B3F1FF3F03D13B6B3E
:102DA000002283F844203B6B93F84530DBB25BB2E2
:102DB000B3F1FF3F03D13B6B002283F84520FFF7BF
:102DC00077FC07F110023B1D1046194601F01EF872
:102DD0000346002B24D1386B00F0D4FA0346002BB5
:102DE00018D03B6B03F110027B681046194600F0C7
:102DF00047FF386B00F052FA00F080FD0346002BCD
:102E000015D10D4B4FF080521A60BFF34F8FBFF3B7
:102E10006F8F0CE0386B00F041FA00F06FFD4CE76B
:102E2000386B00F03BFA00F069FD002300E044E756
:102E300018463837BD4680BD04ED00E080B590B03F
:102E400000AFF860B9607A603B60FB68BB63BB6B46
:102E5000002B09D14FF0FC0383F31188BFF36F8F70
:102E6000BFF34F8FBB62FEE7BB68002B03D1BB6B88
:102E70001B6C002B01D1012300E00023002B09D1A2
:102E80004FF0FC0383F31188BFF36F8FBFF34F8FB5
:102E90007B62FEE73B68022B03D1BB6BDB6B012B34
:102EA00001D1012300E00023002B09D14FF0FC03E6
:102EB00083F31188BFF36F8FBFF34F8F3B62FEE741
:102EC000FFF7A2FCEFF311824FF0FC0383F31188AC
:102ED000BFF36F8FBFF34F8FFA61BB61FB697B63F9
:102EE000BB6B9A6BBB6BDB6B9A4202D33B68022BCA
:102EF00056D1BB6B93F8453087F83330BB6B9B6B77
:102F0000FB62B86BB9683A6800F036F997F933306C
:102F1000B3F1FF3F2BD1BB6B9B6C002B14D03B68F4
:102F2000022B04D1FB6A002B01D000BF35E0B86B47
:102F300000F09EFA0346002B2FD07B68002B2CD08C
:102F40007B6801221A6028E0BB6B5B6A002B24D0EF
:102F5000BB6B2433184600F0DFFE0346002B1CD069
:102F60007B68002B19D07B6801221A6015E097F965
:102F700033307F2B09D14FF0FC0383F31188BFF36B
:102F80006F8FBFF34F8F7B61FEE797F833300133CC
:102F9000DBB2DAB2BB6B83F845200123FB6301E0AF
:102FA0000023FB637B6B3B613B6983F31188FB6B05
:102FB00018464037BD4680BD80B58CB000AFF86084
:102FC000B9607A600023FB62FB68BB62BB6A002BBE
:102FD00009D14FF0FC0383F31188BFF36F8FBFF368
:102FE0004F8F3B62FEE7BB68002B03D1BB6A1B6CB3
:102FF000002B01D1012300E00023002B09D14FF069
:10300000FC0383F31188BFF36F8FBFF34F8FFB6116
:10301000FEE701F027F80346002B02D17B68002B66
:1030200001D1012300E00023002B09D14FF0FC0364
:1030300083F31188BFF36F8FBFF34F8FBB61FEE740
:10304000FFF708FBBB6A9B6B7B627B6A002B1FD080
:10305000B86AB96800F0FCF87B6A5A1EBB6A9A63CA
:10306000BB6A1B69002B0FD0BB6A1033184600F0F7
:1030700053FE0346002B07D03E4B4FF080521A60A0
:10308000BFF34F8FBFF36F8FFFF712FB01236DE08C
:103090007B68002B03D1FFF70BFB002366E0FB6A84
:1030A000002B06D107F11003184600F099FE01230A
:1030B000FB62FFF7FDFA00F013FCFFF7CBFABB6AE7
:1030C00093F84430DBB25BB2B3F1FF3F03D1BB6A8C
:1030D000002283F84420BB6A93F84530DBB25BB230
:1030E000B3F1FF3F03D1BB6A002283F84520FFF70D
:1030F000DFFA07F110023B1D1046194600F086FE6C
:103100000346002B24D1B86A00F026F90346002BB1
:1031100018D0BB6A03F124027B681046194600F000
:10312000AFFDB86A00F0BAF800F0E8FB0346002BE8
:103130001BD1104B4FF080521A60BFF34F8FBFF37B
:103140006F8F12E0B86A00F0A9F800F0D7FB77E7BC
:10315000B86A00F0A3F800F0D1FBB86A00F0FCF800
:103160000346002B01D0002300E069E71846303702
:10317000BD4680BD04ED00E080B586B000AFF860CC
:10318000B9607A6000237B61FB689B6B3B61FB68E5
:103190001B6C002B0DD1FB681B68002B4FD1FB680B
:1031A0009B68184600F07CFF7861FB6800229A60FB
:1031B00045E07B68002B1AD1FB685A68FB681B6CE2
:1031C0001046B9681A4601F093FEFB685A68FB681E
:1031D0001B6C1A44FB685A60FB685A68FB689B6862
:1031E0009A422CD3FB681A68FB685A6027E0FB6898
:1031F000DA68FB681B6C1046B9681A4601F078FE65
:10320000FB68DA68FB681B6C5B421A44FB68DA6097
:10321000FB68DA68FB681B689A4207D2FB689A6809
:10322000FB681B6C5B421A44FB68DA607B68022B0C
:1032300005D13B69002B02D03B69013B3B613B69F7
:103240005A1CFB689A637B6918461837BD4680BDD7
:1032500080B582B000AF786039607B681B6C002B52
:1032600019D07B68DA687B681B6C1A447B68DA606B
:103270007B68DA687B689B689A4203D37B681A682C
:103280007B68DA607B68DA687B681B6C386811469B
:103290001A4601F02DFE0837BD4680BD80B584B0CA
:1032A00000AF7860FFF7D6F97B6893F84530FB7381
:1032B00020E07B689B6C002B08D0786800F0D8F881
:1032C0000346002B12D000F015FE0FE07B685B6A0E
:1032D000002B0AD07B682433184600F01DFD0346FE
:1032E000002B03D000F006FE00E007E0FB7B013B73
:1032F000DBB2FB7397F90F30002BDADC7B68FF221F
:1033000083F84520FFF7D4F9FFF7A4F97B6893F819
:103310004430BB7313E07B681B69002B0ED07B68C5
:103320001033184600F0F8FC0346002B01D000F0E3
:10333000E1FDBB7B013BDBB2BB7300E003E097F92F
:103340000E30002BE7DC7B68FF2283F84420FFF778
:10335000AFF91037BD4680BD80B584B000AF78604E
:10336000FFF778F97B689B6B002B02D10123FB6090
:1033700001E00023FB60FFF79BF9FB68184610375C
:10338000BD4680BD80B584B000AF7860FFF762F9BC
:103390007B689A6B7B68DB6B9A4202D10123FB60EE
:1033A00001E00023FB60FFF783F9FB681846103744
:1033B000BD4680BD80B485B000AF78603960002321
:1033C000FB6014E00E4AFB6852F83330002B0BD13F
:1033D0000B49FB683A6841F83320094AFB68DB0077
:1033E00013447A685A6005E0FB680133FB60FB68B0
:1033F000072BE7D91437BD465DF8047B704700BF43
:10340000380AFF1F80B586B000AFF860B9607A60F7
:10341000FB687B61FFF71EF97B6993F84430DBB2F0
:103420005BB2B3F1FF3F03D17B69002283F84420F4
:103430007B6993F84530DBB25BB2B3F1FF3F03D158
:103440007B69002283F84520FFF732F97B699B6B8B
:10345000002B06D17B6924331846B9687A6800F0DE
:1034600031FC7869FFF71AFF1837BD4680BD00BFF1
:1034700080B588B000AF78607B689B6CBB6100232F
:10348000FB61BB69002B09D14FF0FC0383F311886A
:10349000BFF36F8FBFF34F8F3B61FEE7BB699A6B42
:1034A000BB69DB6B9A4209D34FF0FC0383F31188AD
:1034B000BFF36F8FBFF34F8FFB60FEE7BB699A6B63
:1034C000BB69DB6B9A4234D2BB6993F84530FB751C
:1034D0003B1DB86919460022FFF74EFEF86197F9C7
:1034E0001730B3F1FF3F0ED1BB695B6A002B20D0D0
:1034F000BB692433184600F00FFC0346002B18D09C
:103500000123FB6115E097F917307F2B09D14FF0AC
:10351000FC0383F31188BFF36F8FBFF34F8FBB6042
:10352000FEE7FB7D0133DBB2DAB2BB6983F84520ED
:10353000FFE7FB6918462037BD4680BD80B58CB0DB
:1035400004AFF860B9603B601346FB80FB889B00CA
:103550001846FFF795F978617B69002B0ED0702033
:10356000FFF78EF9F861FB69002B03D0FB697A69DC
:103570001A6305E07869FFF795F901E00023FB6124
:10358000FB69002B13D0FA88BB6A0093FB6A019396
:10359000FB69029300230393F868B9683B6800F065
:1035A0000FF8F86900F0ACF80123BB6102E04FF0BE
:1035B000FF33BB61BB6918462037BD4680BD00BFE5
:1035C00080B588B000AFF860B9607A603B603B6B53
:1035D0001A6B7B689B001046A5211A4601F093FCEC
:1035E0003B6B1A6B7B6803F18043013B9B001344E8
:1035F000BB61BB6923F00703BB61BB6903F0070331
:10360000002B09D04FF0FC0383F31188BFF36F8FB9
:10361000BFF34F8F7B61FEE7BB68002B1ED00023FA
:10362000FB6113E0BA68FB69134419783A6BFB69D4
:10363000134430330A461A71BA68FB6913441B7885
:10364000002B00D105E0FB690133FB61FB690F2B07
:10365000E8D93B6B002283F8432003E03B6B002258
:1036600083F83420BB6A042B01D90423BB623B6B73
:10367000BA6ADA623B6BBA6ADA643B6B00221A659B
:103680003B6B04331846FFF73FF93B6B1833184682
:10369000FFF73AF93B6B3A6B1A61BB6AC3F105025B
:1036A0003B6B9A613B6B3A6B5A623B6B54331846E7
:1036B0000021142201F027FC3B6B683318460021DF
:1036C000042201F020FC3B6B6C33184600210122E0
:1036D00001F019FC3B6B002283F86D20B869F96892
:1036E0003A68FEF78BFE02463B6B1A60FB6A002BC2
:1036F00002D0FB6A3A6B1A602037BD4680BD00BF1E
:1037000080B582B000AF7860FEF7A4FF2D4B1B6838
:1037100001332C4A13602C4B1B68002B09D12A4A19
:103720007B681360274B1B68012B10D100F006FC4F
:103730000DE0264B1B68002B09D1234B1B68DA6A6E
:103740007B68DB6A9A4202D81F4A7B681360204B71
:103750001B6801331E4A13601D4B1A687B685A644C
:103760007B68DB6A1A46012303FA02F2194B1B68D5
:103770001343184A13607B68DA6A13469B001344AC
:103780009B00154A1A447B68043310461946FFF71C
:10379000C7F8FEF78DFF0D4B1B68002B0ED00A4BB0
:1037A0001B68DA6A7B68DB6A9A4207D20B4B4FF0E0
:1037B00080521A60BFF34F8FBFF36F8F0837BD463B
:1037C00080BD00BFC409FF1FEC08FF1FD009FF1F09
:1037D000E009FF1FCC09FF1FF008FF1F04ED00E008
:1037E00080B584B000AF78600023FB607B68002B5D
:1037F00016D0124B1B68002B09D04FF0FC0383F34B
:103800001188BFF36F8FBFF34F8FBB60FEE700F0EF
:1038100067F87868002100F0BDFC00F06FF8F860F0
:10382000FB68002B07D1064B4FF080521A60BFF3A4
:103830004F8FBFF36F8F1037BD4680BDEC09FF1F60
:1038400004ED00E080B586B002AF002300931D4B6D
:1038500001931D481D4982220023FFF76FFEF86087
:10386000FB68012B02D100F0FFFCF860FB68012B24
:1038700015D14FF0FC0383F31188BFF36F8FBFF3B3
:103880004F8FBB60124B4FF0FF321A60114B012279
:103890001A60114B00221A60FEF73EFE0DE0FB6835
:1038A000B3F1FF3F09D14FF0FC0383F31188BFF35D
:1038B0006F8FBFF34F8F7B60FEE7084B1B6810379D
:1038C000BD4680BDE809FF1F0D3F000824510008D8
:1038D000E409FF1FD009FF1FC809FF1F6408FF1F6D
:1038E00080B400AF044B1B680133034A1360BD462C
:1038F0005DF8047B704700BFEC09FF1F80B584B002
:1039000000AF0023FB600023BB60424B1B68002B11
:1039100009D14FF0FC0383F31188BFF36F8FBFF31E
:103920004F8F3B60FEE7FEF795FE3A4B1B68013B6D
:10393000384A1360374B1B68002B63D1364B1B682A
:10394000002B5FD030E0354BDB68DB68FB60FB6849
:1039500018331846FFF740F8FB6804331846FFF7A2
:103960003BF8FB68DB6A1A46012303FA02F22C4B90
:103970001B6813432A4A1360FB68DA6A13469B00EC
:1039800013449B00274A1A44FB6804331046194627
:10399000FEF7C6FFFB68DA6A234B1B68DB6A9A42B4
:1039A00002D3224B01221A601C4B1B68002BCAD188
:1039B000FB68002B01D000F03BFB1D4B1B687B60BC
:1039C0007B68002B10D000F047F80346002B02D094
:1039D000164B01221A607B68013B7B607B68002BE1
:1039E000F1D1134B00221A60104B1B68002B09D039
:1039F0000123BB600F4B4FF080521A60BFF34F8F13
:103A0000BFF36F8FFEF754FEBB6818461037BD46F4
:103A100080BD00BFEC09FF1FC409FF1F8409FF1F01
:103A2000CC09FF1FF008FF1FEC08FF1FD809FF1F7C
:103A3000D409FF1F04ED00E080B483B000AF054B54
:103A40001B687B607B6818460C37BD465DF8047BBD
:103A5000704700BFC809FF1F80B586B000AF0023C4
:103A60007B614F4B1B68002B40F08F804D4B1B68D8
:103A700001333B614B4A3B6913603B69002B1FD10B
:103A8000494B1B681B68002B09D04FF0FC0383F3E4
:103A90001188BFF36F8FBFF34F8F3B60FEE7424B40
:103AA0001B68FB60414B1B683F4A13603F4AFB6841
:103AB00013603F4B1B6801333D4A136000F0B8FAB6
:103AC0003C4B1B683A699A424AD3374B1B681B68C8
:103AD000002B04D1374B4FF0FF321A6040E0324BDD
:103AE0001B68DB68DB68BB60BB685B687B603A694E
:103AF0007B689A4203D22F4A7B68136030E0BB6830
:103B000004331846FEF768FFBB689B6A002B04D09D
:103B1000BB6818331846FEF75FFFBB68DB6A1A46BE
:103B2000012303FA02F2244B1B681343224A136059
:103B3000BB68DA6A13469B0013449B001F4A1A4471
:103B4000BB68043310461946FEF7EAFEBB68DA6A22
:103B50001B4B1B68DB6A9A4201D301237B61B4E7EC
:103B6000174B1B68DA6A154913469B0013449B00E8
:103B70000B441B68012B01D901237B61114B1B688E
:103B8000002B01D001237B6104E00F4B1B68013344
:103B90000D4A13607B6918461837BD4680BD00BFCB
:103BA000EC09FF1FC809FF1F7C09FF1F8009FF1FC9
:103BB000DC09FF1FE409FF1FCC09FF1FF008FF1FEE
:103BC000EC08FF1FD809FF1FD409FF1F80B487B07E
:103BD00000AF264B1B68002B03D0254B01221A6037
:103BE0003EE0234B00221A60224B1B68FB60FB68FF
:103BF000B3FA83F3FB72FB7AC3F11F037B611E49A7
:103C00007A6913469B0013449B000B441B68002BEE
:103C100009D14FF0FC0383F31188BFF36F8FBFF31B
:103C20004F8F7B60FEE77A6913469B0013449B002D
:103C3000114A13443B613B695B685A683B695A60AF
:103C40003B695A683B6908339A4204D13B695B6817
:103C50005A683B695A603B695B68DB68074A1360D6
:103C60001C37BD465DF8047B704700BFEC09FF1FA1
:103C7000D809FF1FCC09FF1FF008FF1FEC08FF1F2A
:103C800080B584B000AF786039607B68002B09D1C3
:103C90004FF0FC0383F31188BFF36F8FBFF34F8F97
:103CA000FB60FEE7064B1B68183378681946FEF781
:103CB0005BFE3868012100F06DFA1037BD4680BD0B
:103CC000EC08FF1F80B586B000AFF860B9607A607D
:103CD000FB68002B09D14FF0FC0383F31188BFF37D
:103CE0006F8FBFF34F8F7B61FEE70A4B1B68183362
:103CF000F8681946FEF714FE7B68002B02D04FF0DF
:103D0000FF33BB60B868796800F044FA1837BD46E5
:103D100080BD00BFEC08FF1F80B586B000AF7860A3
:103D20007B68DB68DB683B613B69002B09D14FF0A6
:103D3000FC0383F31188BFF36F8FBFF34F8FFB60DA
:103D4000FEE73B6918331846FEF746FE1E4B1B681C
:103D5000002B1ED13B6904331846FEF73DFE3B693C
:103D6000DB6A1A46012303FA02F2184B1B6813435D
:103D7000164A13603B69DA6A13469B0013449B00A2
:103D8000134A1A443B69043310461946FEF7C8FD2E
:103D900005E03B6918330F481946FEF7C1FD3B6942
:103DA000DA6A0D4B1B68DB6A9A4205D901237B61F5
:103DB0000A4B01221A6001E000237B617B691846EF
:103DC0001837BD4680BD00BFEC09FF1FCC09FF1F9F
:103DD000F008FF1F8409FF1FEC08FF1FD809FF1F11
:103DE00080B483B000AF7860064B1A687B681A60B5
:103DF000054B1A687B685A600C37BD465DF8047B3A
:103E0000704700BFDC09FF1FC809FF1F80B588B0DD
:103E100000AF786039607B68002B09D14FF0FC035C
:103E200083F31188BFF36F8FBFF34F8F3B61FEE7C2
:103E30003B68002B09D14FF0FC0383F31188BFF3DB
:103E40006F8FBFF34F8FFB60FEE7FEF703FC264B3F
:103E50001B68BB617B685B68BA69D31A7B61234BC3
:103E60001B6893F86D30002B07D0204B1B68002295
:103E700083F86D200123FB612EE03B681B68B3F1E2
:103E8000FF3F02D10023FB6126E07B681A68184BD4
:103E90001B689A420AD07B685A68BB699A4205D867
:103EA0000123FB613B6800221A6015E03B681A6839
:103EB0007B699A420BD93B681A687B69D21A3B68C6
:103EC0001A607868FFF78CFF0023FB6104E03B6811
:103ED00000221A600123FB61FEF7EAFBFB6918462A
:103EE0002037BD4680BD00BFC809FF1FEC08FF1F7B
:103EF000DC09FF1F80B400AF034B01221A60BD46EE
:103F00005DF8047B704700BFD809FF1F80B582B001
:103F100000AF786000F050F8064B1B68012B07D902
:103F2000054B4FF080521A60BFF34F8FBFF36F8F76
:103F3000F0E700BFF008FF1F04ED00E080B582B09D
:103F400000AF00237B600CE07A6813469B001344AB
:103F50009B00114A13441846FEF7B6FC7B680133F8
:103F60007B607B68042BEFD90C48FEF7ADFC0C4856
:103F7000FEF7AAFC0B48FEF7A7FC0B48FEF7A4FCD3
:103F80000A48FEF7A1FC0A4B044A1A60094B044A8E
:103F90001A600837BD4680BDF008FF1F5409FF1F97
:103FA0006809FF1F8409FF1F9809FF1FB009FF1F41
:103FB0007C09FF1F8009FF1F80B582B000AF19E0A8
:103FC000FEF748FB0F4BDB68DB687B607B680433E4
:103FD0001846FEF701FD0C4B1B68013B0A4A1360B3
:103FE0000A4B1B68013B094A1360FEF761FB7868C6
:103FF00000F00EF8054B1B68002BE1D10837BD46D9
:1040000080BD00BF9809FF1FC409FF1FAC09FF1F37
:1040100080B582B000AF78607B681B6B1846FEF7F6
:1040200041FC7868FEF73EFC0837BD4680BD00BF06
:1040300080B400AF094B1B681B68002B04D1084BF0
:104040004FF0FF321A6005E0044B1B68DB681B6809
:10405000034A1360BD465DF8047B70477C09FF1F6F
:10406000E409FF1F80B483B000AF0B4B1B68002B2B
:1040700002D101237B6008E0084B1B68002B02D1B2
:1040800002237B6001E000237B607B6818460C37CD
:10409000BD465DF8047B7047D009FF1FEC09FF1F88
:1040A00080B586B000AF78607B683B6100237B61A0
:1040B0007B68002B63D0344B1B683A699A4209D065
:1040C0004FF0FC0383F31188BFF36F8FBFF34F8F63
:1040D000FB60FEE73B691B6D002B09D14FF0FC0331
:1040E00083F31188BFF36F8FBFF34F8FBB60FEE781
:1040F0003B691B6D5A1E3B691A653B69DA6A3B696D
:10410000DB6C9A423BD03B691B6D002B37D13B697E
:1041100004331846FEF760FC0346002B0AD13B69C6
:10412000DB6A1A4601239340DA43184B1B6813409D
:10413000164A13603B69DA6C3B69DA623B69DB6AF9
:10414000C3F105023B699A613B69DB6A1A460123A8
:1041500003FA02F20D4B1B6813430C4A13603B69D0
:10416000DA6A13469B0013449B00094A1A443B69D0
:10417000043310461946FEF7D3FB01237B617B69AC
:1041800018461837BD4680BDEC08FF1FCC09FF1F3D
:10419000F008FF1F80B584B000AF786039602B4B0A
:1041A0001B68FB602A4B1B68002283F86D20284B9C
:1041B0001B6804331846FEF70FFC0346002B0BD197
:1041C000234B1B68DB6A1A4601239340DA43214BD9
:1041D0001B6813401F4A13607B68B3F1FF3F0AD18D
:1041E0003B68002B07D01A4B1B6804331A4819464A
:1041F000FEF796FB26E0FA687B681344BB60144B1D
:104200001B68BA685A60BA68FB689A4209D2134BB5
:104210001A680F4B1B68043310461946FEF7A4FBBF
:1042200010E00F4B1A680A4B1B68043310461946FE
:10423000FEF79AFB0B4B1B68BA689A4202D2094AF6
:10424000BB6813601037BD4680BD00BFC809FF1FA3
:10425000EC08FF1FCC09FF1FB009FF1F8009FF1FDB
:104260007C09FF1FE409FF1F80B584B002AF002363
:104270007B6000F0F3FA114B1B68002B0BD002237C
:1042800000930F4B01930F480F494FF482720023A4
:10429000FFF754F978607B68002B09D14FF0FC03DD
:1042A00083F31188BFF36F8FBFF34F8F3B60FEE73F
:1042B0007B6818460837BD4680BD00BF200AFF1F37
:1042C000240AFF1F094400083C51000880B58AB049
:1042D00000AFF860B9607A603B6000237B62FB68E6
:1042E000002B09D14FF0FC0383F31188BFF36F8FCC
:1042F000BFF34F8F3B62FEE71C4B1B68002B30D097
:10430000BB683B617B687B61FB68BB61BB68052B5D
:104310001CDCFFF7A7FE0346022B0BD1134B1A68D8
:1043200007F11003104619463A6B0023FEF76AFCAA
:10433000786216E00D4B1A6807F110031046194613
:1043400000220023FEF75EFC78620AE0074B1A6841
:1043500007F11003104619463A680023FEF76EFD78
:1043600078627B6A18462837BD4680BD200AFF1F49
:1043700080B588B002AF78603960224B1B68DB687B
:10438000DB687B617B6904331846FEF725FB7B699C
:1043900093F8283003F00403002B22D07B699A693C
:1043A0007B681344786919463A687B6800F0D0F856
:1043B0000346002B1ED000230093786900217A6801
:1043C0000023FFF783FF38613B69002B12D14FF0C8
:1043D000FC0383F31188BFF36F8FBFF34F8FFB6034
:1043E000FEE77B6993F8283023F00103DAB27B699A
:1043F00083F828207B691B6A786998471837BD467F
:1044000080BD00BF180AFF1F80B584B000AF786080
:1044100007F10803184600F057F8F860BB68F86821
:10442000194600F003F800F0D5F8F1E780B584B044
:1044300000AF78603960FFF753FA07F108031846B8
:1044400000F066F8F860BB68002B31D13B68002BA8
:104450000AD17A68FB689A4206D8FFF74FFA786863
:10446000F968FFF785FF25E03B68002B08D0134B68
:104470001B681B68002B01D1012300E000233B6077
:104480000F4B19687A68FB68D31A084619463A68D0
:10449000FEF7B8FFFFF732FA0346002B0AD1094BAB
:1044A0004FF080521A60BFF34F8FBFF36F8F01E060
:1044B000FFF724FA1037BD4680BD00BF1C0AFF1F5E
:1044C000200AFF1F04ED00E080B485B000AF7860E3
:1044D0000E4B1B681B68002B01D1012200E000225B
:1044E0007B681A607B681B68002B05D1074B1B6833
:1044F000DB681B68FB6001E00023FB60FB6818467B
:104500001437BD465DF8047B704700BF180AFF1FD3
:1045100080B584B000AF7860FFF78EFAF8600B4B7F
:104520001B68FA689A4205D200F036F97B680122CE
:104530001A6002E07B6800221A60044AFB6813607C
:10454000FB6818461037BD4680BD00BF280AFF1F14
:1045500080B586B000AFF860B9607A603B60002338
:104560007B61FB68BA685A60FB68FA681A61BA68CE
:104570007B689A4212D87A683B68D21AFB689B69BA
:104580009A4202D301237B611BE0104B1A68FB683F
:10459000043310461946FEF7E7F912E07A683B68E3
:1045A0009A4206D2BA683B689A4202D301237B61E1
:1045B00007E0074B1A68FB68043310461946FEF7FC
:1045C000D3F97B6918461837BD4680BD1C0AFF1F0A
:1045D000180AFF1F80B58EB002AFCBE07B68002BBE
:1045E00018DA3B1D0433FB62FB6A002B09D14FF044
:1045F000FC0383F31188BFF36F8FBFF34F8FFB6111
:10460000FEE7FB6A1B68FA6A5168FA6A9268084614
:10461000114698477B68002BC0F2AC80FB68BB62F8
:10462000BB6A5B69002B04D0BB6A04331846FEF7F3
:10463000D3F93B461846FFF76BFF78627B68092B7E
:1046400000F2978001A252F823F000BF75460008DF
:104650007546000875460008EB460008FF4600084E
:10466000494700087546000875460008EB460008F3
:10467000FF460008BB6A93F8283043F00103DAB222
:10468000BB6A83F82820BA68BB6A9B691A44BB6876
:10469000B86A11467A6AFFF75BFF0346002B23D006
:1046A000BB6A1B6AB86A9847BB6A93F8283003F064
:1046B0000403002B18D0BA68BB6A9B691A44002314
:1046C0000093B86A00210023FFF700FE38623B6ABE
:1046D000002B09D14FF0FC0383F31188BFF36F8FD8
:1046E000BFF34F8FBB61FEE744E0BB6A93F828300D
:1046F00023F00103DAB2BB6A83F828203AE0BB6AF0
:1047000093F8283043F00103DAB2BB6A83F828201B
:10471000BA68BB6A9A61BB6A9B69002B09D14FF0EA
:10472000FC0383F31188BFF36F8FBFF34F8F7B615F
:10473000FEE7BB6A9A697B6A1344B86A19467A6ACB
:104740007B6AFFF705FF15E0BB6A93F8283003F09A
:104750000203002B03D1B86AFEF7A4F808E0BB6A95
:1047600093F8283023F00103DAB2BB6A83F82820DB
:1047700000E000BF074B1A683B1D10461946002297
:10478000FEF71AFC0346002B7FF428AF3037BD46F6
:1047900080BD00BF200AFF1F80B588B002AF47E090
:1047A0002C4B1B68DB681B687B612A4B1B68DB6832
:1047B000DB683B613B6904331846FEF70DF93B6942
:1047C0001B6A386998473B6993F8283003F0040363
:1047D000002B2DD03B699A697B691344FB60FA6812
:1047E0007B699A420ED93B69FA685A603B693A691B
:1047F0001A61184B1A683B69043310461946FEF7D4
:10480000B3F815E000230093386900217A6900238A
:10481000FFF75CFDB860BB68002B09D14FF0FC03CB
:1048200083F31188BFF36F8FBFF34F8F3B60FEE7B9
:10483000084B1B681B68002BB2D1064B1B687B60C2
:10484000054B1B68034A1360034A7B6813601837E3
:10485000BD4680BD180AFF1F1C0AFF1F80B500AFB0
:10486000FDF7F8FE124B1B68002B1DD11148FEF717
:104870002BF81148FEF728F8104B0E4A1A60104B1F
:104880000D4A1A60052010210022FEF737F9024672
:10489000074B1A60064B1B68002B05D0044B1B68A6
:1048A00018460849FEF786FDFDF702FF80BD00BFF0
:1048B000200AFF1FF009FF1F040AFF1F180AFF1F2D
:1048C0001C0AFF1F4451000880B582B000AF786019
:1048D0007B6819687B681A7C7B680433084611463C
:1048E0001A46FBF755FD7B6819687B681A7C7B6864
:1048F0005B7C084611461A46FCF742FB002318462B
:104900000837BD4680BD00BF80B485B000AF786079
:104910007B6803F00703FB600C4BDB68BB60BA6885
:104920004FF6FF031340BB60FB681A02BB681343DA
:1049300043F0BF6343F40033BB60044ABB68D360F9
:104940001437BD465DF8047B704700BF00ED00E002
:1049500080B582B000AF0120FFF7D6FF72B6214BC1
:10496000214A9A60BFF34F8F62B61E4A1D4BD3F89F
:10497000883043F47003C2F888301C4B03F5805331
:1049800014331B687B607B6823F00F037B607B68BC
:1049900043F004037B60154B03F5805314337A68AE
:1049A0001A60104A0F4B5B6923F0100353610D4AE4
:1049B0000C4B5B6923F0080353610A4A094B5B6A9D
:1049C00023F480335362074A064B5B6A23F40033B7
:1049D0005362044A034B5B6A23F480235362083713
:1049E000BD4680BD00ED00E000000008001000584A
:1049F00080B485B000AF78600023FB737B68012230
:104A00001A70FB7B18461437BD465DF8047B70476F
:104A100080B400AF024B1846BD465DF8047B70477A
:104A2000001BB70080B483B000AF78600649064B26
:104A30009B6B23F480327B6813438B630C37BD463A
:104A40005DF8047B704700BF00460050B0B586B0EB
:104A500000AF154B3C1D1D460FCD0FC42B682360C6
:104A60003B1D1846FBF78EFD0020FBF7B3FE4FF40D
:104A70008030FBF767FE0620FBF738FFFBF7C2FF2D
:104A800003206421FBF7CEFF0020FFF7CBFF0220BD
:104A9000FBF754FF0020FBF769FE0120FBF73AFF0C
:104AA0001837BD46B0BD00BF6051000880B582B068
:104AB00000AF0023FB711148FFF79AFF0346FB711B
:104AC000FB79002B04D10E48FDF778FC0346FB71FF
:104AD000FB79002B04D10B48FFF7F6FE0346FB7170
:104AE000FB79002B04D10848FCF780FE0346FB71DC
:104AF000FB7918460837BD4680BD00BF2C0AFF1F52
:104B00005008FF1F4C5100084408FF1F80B483B0B9
:104B100000AF78600B46FB70FB7801229A407B68FF
:104B20005A600C37BD465DF8047B704780B483B093
:104B300000AF78600B46FB70FB784FF480329A40F0
:104B40007B685A600C37BD465DF8047B704700BF38
:104B500080B582B000AF78607B681A687B681B7C88
:104B600010461946FFF7D2FF0837BD4680BD00BF8B
:104B700080B582B000AF78607B681A687B681B7C68
:104B800010461946FFF7D2FF0837BD4680BD00BF6B
:104B900080B483B000AF78607B689B6C18460C379C
:104BA000BD465DF8047B704780B582B000AF786089
:104BB00039607B681B681846FFF7EAFF02463B68CE
:104BC000134018460837BD4680BD00BF80B483B08F
:104BD00000AF78607B689B6893F82030DBB21846A2
:104BE0000C37BD465DF8047B704700BF80B582B0CE
:104BF00002AFFFF75BFF0346012B00D1FEE7022364
:104C0000009300230193054805494FF47A7200236D
:104C1000FEF794FCFEF716FEFEE700BFED4D000820
:104C20007451000880B584B000AF786076233B7281
:104C300002237B7207F10803786819460222FCF709
:104C4000E5FD0346002B06D100BF7868FFF7BEFFE5
:104C50000346002BF9D103233B7201237B7207F13A
:104C60000803786819460222FCF7D0FD0346002BA2
:104C700006D100BF7868FFF7A9FF0346002BF9D1E2
:104C800076233B7201237B7207F10803786819468B
:104C90000222FCF7BBFD0346002B06D100BF78685B
:104CA000FFF794FF0346002BF9D10B233B7202223E
:104CB00001231343DBB27B7207F1080378681946BE
:104CC0000222FCF7A3FD0346002B06D100BF786843
:104CD000FFF77CFF0346002BF9D176233B720023BC
:104CE0007B7207F10803786819460222FCF78EFDF3
:104CF0000346002B06D100BF7868FFF767FF034625
:104D0000002BF9D1022201231343FB72FB7A9B0093
:104D1000DAB2FB7A1343DBB2BB724E233B72BB7A2F
:104D20007B7207F10803786819460222FCF76EFDD2
:104D30000346002B06D100BF7868FFF747FF034604
:104D4000002BF9D10023FB6002E0FB680133FB601C
:104D5000FB68254A9342F8DD50233B720022012371
:104D60001343DBB27B7207F108037868194602220D
:104D7000FCF74CFD0346002B06D100BF7868FFF717
:104D800025FF0346002BF9D10023FB6002E0FB68FE
:104D90000133FB60FB68144A9342F8DD4F233B72FA
:104DA000802201231343DBB27B7207F1080378688A
:104DB00019460222FCF72AFD0346002B06D100BF4C
:104DC0007868FFF703FF0346002BF9D10023FB604F
:104DD00002E0FB680133FB60FB68034A9342F8DDA5
:104DE0001037BD4680BD00BFBFC62D0080B584B062
:104DF00000AF78601F2280231343DBB23B73002394
:104E00007B7300233B811A48FFF7B2FE1948FFF776
:104E100009FF1748FFF79CFE1548FFF7A9FE07F1A9
:104E20000C0207F10803134811461A460223FCF747
:104E30007DFD00BF0F4B9B6893F82030DBB2002B49
:104E4000F8D100BF0B4B9B68DB7FDBB2002BF9D1A5
:104E500000BF08480121FFF7A7FE0346002BF8D149
:104E60000348FFF775FE4FF4FA60FEF7B9FCD3E78D
:104E70004C5100084408FF1F014B1868704700BFE1
:104E8000C808FF1F70B50E4B0E4CE41AA410002585
:104E90001E46A54204D056F8253098470135F8E75C
:104EA000FCF770FB084C094BE41AA41000251E46C1
:104EB000A54204D056F8253098470135F8E770BD73
:104EC000CC08FF1FCC08FF1FCC08FF1FCC08FF1F1A
:104ED000024B0146186800F063B800BFC808FF1F06
:104EE000024B0146186800F017B800BFC808FF1F42
:104EF00010B5431E0A44914204D011F8014B03F847
:104F0000014FF8E710BD02440346934202D003F874
:104F1000011BFAE77047000030B500293DD051F879
:104F2000042C0B1F1D49002AB8BF9B180A680C46A9
:104F300012B95A600B6030BD93420DD219685818EF
:104F4000904201BF5A5852181A6042685A60236052
:104F500030BD994203D80A4651680029F9D1146836
:104F600015199D420AD11B682344D018884213604A
:104F700013D10868034413604B680DE002D90C2379
:104F8000036030BD1C681819884204BF086849686E
:104F9000596004BF00191860536030BD340AFF1F08
:104FA00070B5CC1C24F0030408340C2C38BF0C243E
:104FB000002C064603DA0C233360002070BD8C42BF
:104FC000F9D3204A136810461946A1B10A68121B8A
:104FD0000ED40B2A03D90A608B188C501FE08B4229
:104FE0000DBF5A684A685A60026018BF0B4616E047
:104FF0000B464968E9E7144D2B681BB9304600F0B1
:1050000025F828603046214600F020F8421C03466F
:10501000D1D0C51C25F0030585420AD11C6003F1DF
:105020000B001A1D20F00700821A0AD05142995035
:1050300070BD3046E91A00F009F80130BBD02B46AC
:10504000ECE770BD340AFF1F300AFF1F38B5064C6D
:105050000023054608462360FCF760FA431C02D192
:10506000236803B12B6038BD780AFF1F0082024815
:105070000500000000820248020000000082024891
:10508000040000009000000001000000010000008A
:1050900000000000000000001408FF1F712200083B
:1050A0006C5000080008FF1F74500008D008FF1F54
:1050B00000000000000000000000000000000000F0
:1050C0007C50000884500008000000000000000030
:1050D00000000000000000000000000000000000D0
:1050E00000000000000000000000000000000000C0
:1050F00000000000000000000000000000000000B0
:10510000000000000000000000000000000000009F
:105110000000000004040000000000000000000087
:105120000201000049444C450000000009256309C4
:1051300025750925750925750D0A0000546D722025
:1051400053766300546D72510000000000810248E4
:105150008000000001000000000000000E000000C0
:105160003002010100000100000000000000010009
:0C517000020101015350490043000000FF
:10517C009000000001000000010000000000000091
:10518C000000000000093D000000040000000000C9
:10519C0008000000000000000000000000000000FB
:1051AC0000000000000000000000000000000000F3
:1051BC000000010000020340985000082008FF1F67
:1051CC0000449508020000000000014000000000AF
:1051DC00AAAAAAAA04000000000000000000000017
:1051EC0000000000000000000000000000000000B3
:1051FC0000000000000000007851000800000000D2
:10520C000000000000000000000000000000000092
:10521C000000000000000000000000000000000082
:10522C000000000000000000000000000000000072
:0C523C0000000000000000006808FF1FD8
:0400000508000201EC
:00000001FF
